{
  "_format": "hh-sol-artifact-1",
  "contractName": "Soulink",
  "sourceName": "contracts/Soulink.sol",
  "abi": [
    {
      "inputs": [
        {
          "internalType": "address[]",
          "name": "addrs",
          "type": "address[]"
        },
        {
          "internalType": "uint256[2][]",
          "name": "connections",
          "type": "uint256[2][]"
        }
      ],
      "stateMutability": "nonpayable",
      "type": "constructor"
    },
    {
      "anonymous": false,
      "inputs": [
        {
          "indexed": true,
          "internalType": "uint256",
          "name": "id0",
          "type": "uint256"
        },
        {
          "indexed": true,
          "internalType": "uint256",
          "name": "id1",
          "type": "uint256"
        }
      ],
      "name": "BreakLink",
      "type": "event"
    },
    {
      "anonymous": false,
      "inputs": [
        {
          "indexed": true,
          "internalType": "address",
          "name": "caller",
          "type": "address"
        },
        {
          "indexed": true,
          "internalType": "uint256",
          "name": "targetId",
          "type": "uint256"
        },
        {
          "indexed": false,
          "internalType": "uint256",
          "name": "deadline",
          "type": "uint256"
        }
      ],
      "name": "CancelLinkSig",
      "type": "event"
    },
    {
      "anonymous": false,
      "inputs": [
        {
          "indexed": true,
          "internalType": "address",
          "name": "previousOwner",
          "type": "address"
        },
        {
          "indexed": true,
          "internalType": "address",
          "name": "newOwner",
          "type": "address"
        }
      ],
      "name": "OwnershipTransferred",
      "type": "event"
    },
    {
      "anonymous": false,
      "inputs": [
        {
          "indexed": true,
          "internalType": "uint256",
          "name": "tokenId",
          "type": "uint256"
        }
      ],
      "name": "ResetLink",
      "type": "event"
    },
    {
      "anonymous": false,
      "inputs": [
        {
          "indexed": false,
          "internalType": "string",
          "name": "uri",
          "type": "string"
        }
      ],
      "name": "SetBaseURI",
      "type": "event"
    },
    {
      "anonymous": false,
      "inputs": [
        {
          "indexed": true,
          "internalType": "uint256",
          "name": "id0",
          "type": "uint256"
        },
        {
          "indexed": true,
          "internalType": "uint256",
          "name": "id1",
          "type": "uint256"
        }
      ],
      "name": "SetLink",
      "type": "event"
    },
    {
      "anonymous": false,
      "inputs": [
        {
          "indexed": true,
          "internalType": "address",
          "name": "target",
          "type": "address"
        },
        {
          "indexed": true,
          "internalType": "bool",
          "name": "isMinter",
          "type": "bool"
        }
      ],
      "name": "SetMinter",
      "type": "event"
    },
    {
      "anonymous": false,
      "inputs": [
        {
          "indexed": true,
          "internalType": "address",
          "name": "from",
          "type": "address"
        },
        {
          "indexed": true,
          "internalType": "address",
          "name": "to",
          "type": "address"
        },
        {
          "indexed": true,
          "internalType": "uint256",
          "name": "tokenId",
          "type": "uint256"
        }
      ],
      "name": "Transfer",
      "type": "event"
    },
    {
      "inputs": [],
      "name": "DOMAIN_SEPARATOR",
      "outputs": [
        {
          "internalType": "bytes32",
          "name": "",
          "type": "bytes32"
        }
      ],
      "stateMutability": "view",
      "type": "function"
    },
    {
      "inputs": [
        {
          "internalType": "address",
          "name": "owner",
          "type": "address"
        }
      ],
      "name": "balanceOf",
      "outputs": [
        {
          "internalType": "uint256",
          "name": "",
          "type": "uint256"
        }
      ],
      "stateMutability": "view",
      "type": "function"
    },
    {
      "inputs": [
        {
          "internalType": "uint256",
          "name": "targetId",
          "type": "uint256"
        }
      ],
      "name": "breakLink",
      "outputs": [],
      "stateMutability": "nonpayable",
      "type": "function"
    },
    {
      "inputs": [
        {
          "internalType": "uint256",
          "name": "tokenId",
          "type": "uint256"
        }
      ],
      "name": "burn",
      "outputs": [],
      "stateMutability": "nonpayable",
      "type": "function"
    },
    {
      "inputs": [
        {
          "internalType": "uint256",
          "name": "targetId",
          "type": "uint256"
        },
        {
          "internalType": "uint256",
          "name": "deadline",
          "type": "uint256"
        },
        {
          "internalType": "bytes",
          "name": "sig",
          "type": "bytes"
        }
      ],
      "name": "cancelLinkSig",
      "outputs": [],
      "stateMutability": "nonpayable",
      "type": "function"
    },
    {
      "inputs": [
        {
          "internalType": "address",
          "name": "owner",
          "type": "address"
        }
      ],
      "name": "getTokenId",
      "outputs": [
        {
          "internalType": "uint256",
          "name": "",
          "type": "uint256"
        }
      ],
      "stateMutability": "pure",
      "type": "function"
    },
    {
      "inputs": [
        {
          "internalType": "uint256",
          "name": "id0",
          "type": "uint256"
        },
        {
          "internalType": "uint256",
          "name": "id1",
          "type": "uint256"
        }
      ],
      "name": "isLinked",
      "outputs": [
        {
          "internalType": "bool",
          "name": "",
          "type": "bool"
        }
      ],
      "stateMutability": "view",
      "type": "function"
    },
    {
      "inputs": [
        {
          "internalType": "address",
          "name": "",
          "type": "address"
        }
      ],
      "name": "isMinter",
      "outputs": [
        {
          "internalType": "bool",
          "name": "",
          "type": "bool"
        }
      ],
      "stateMutability": "view",
      "type": "function"
    },
    {
      "inputs": [
        {
          "internalType": "bytes32",
          "name": "sigHash",
          "type": "bytes32"
        }
      ],
      "name": "isUsableSig",
      "outputs": [
        {
          "internalType": "bool",
          "name": "",
          "type": "bool"
        }
      ],
      "stateMutability": "view",
      "type": "function"
    },
    {
      "inputs": [
        {
          "internalType": "address",
          "name": "to",
          "type": "address"
        }
      ],
      "name": "mint",
      "outputs": [
        {
          "internalType": "uint256",
          "name": "tokenId",
          "type": "uint256"
        }
      ],
      "stateMutability": "nonpayable",
      "type": "function"
    },
    {
      "inputs": [],
      "name": "name",
      "outputs": [
        {
          "internalType": "string",
          "name": "",
          "type": "string"
        }
      ],
      "stateMutability": "view",
      "type": "function"
    },
    {
      "inputs": [],
      "name": "owner",
      "outputs": [
        {
          "internalType": "address",
          "name": "",
          "type": "address"
        }
      ],
      "stateMutability": "view",
      "type": "function"
    },
    {
      "inputs": [
        {
          "internalType": "uint256",
          "name": "tokenId",
          "type": "uint256"
        }
      ],
      "name": "ownerOf",
      "outputs": [
        {
          "internalType": "address",
          "name": "",
          "type": "address"
        }
      ],
      "stateMutability": "view",
      "type": "function"
    },
    {
      "inputs": [],
      "name": "renounceOwnership",
      "outputs": [],
      "stateMutability": "nonpayable",
      "type": "function"
    },
    {
      "inputs": [
        {
          "internalType": "string",
          "name": "baseURI_",
          "type": "string"
        }
      ],
      "name": "setBaseURI",
      "outputs": [],
      "stateMutability": "nonpayable",
      "type": "function"
    },
    {
      "inputs": [
        {
          "internalType": "uint256",
          "name": "targetId",
          "type": "uint256"
        },
        {
          "internalType": "bytes[2]",
          "name": "sigs",
          "type": "bytes[2]"
        },
        {
          "internalType": "uint256[2]",
          "name": "deadlines",
          "type": "uint256[2]"
        }
      ],
      "name": "setLink",
      "outputs": [],
      "stateMutability": "nonpayable",
      "type": "function"
    },
    {
      "inputs": [
        {
          "internalType": "address",
          "name": "target",
          "type": "address"
        },
        {
          "internalType": "bool",
          "name": "_isMinter",
          "type": "bool"
        }
      ],
      "name": "setMinter",
      "outputs": [],
      "stateMutability": "nonpayable",
      "type": "function"
    },
    {
      "inputs": [
        {
          "internalType": "bytes4",
          "name": "interfaceId",
          "type": "bytes4"
        }
      ],
      "name": "supportsInterface",
      "outputs": [
        {
          "internalType": "bool",
          "name": "",
          "type": "bool"
        }
      ],
      "stateMutability": "view",
      "type": "function"
    },
    {
      "inputs": [],
      "name": "symbol",
      "outputs": [
        {
          "internalType": "string",
          "name": "",
          "type": "string"
        }
      ],
      "stateMutability": "view",
      "type": "function"
    },
    {
      "inputs": [
        {
          "internalType": "uint256",
          "name": "tokenId",
          "type": "uint256"
        }
      ],
      "name": "tokenURI",
      "outputs": [
        {
          "internalType": "string",
          "name": "",
          "type": "string"
        }
      ],
      "stateMutability": "view",
      "type": "function"
    },
    {
      "inputs": [],
      "name": "totalSupply",
      "outputs": [
        {
          "internalType": "uint256",
          "name": "",
          "type": "uint256"
        }
      ],
      "stateMutability": "view",
      "type": "function"
    },
    {
      "inputs": [
        {
          "internalType": "address",
          "name": "newOwner",
          "type": "address"
        }
      ],
      "name": "transferOwnership",
      "outputs": [],
      "stateMutability": "nonpayable",
      "type": "function"
    },
    {
      "inputs": [
        {
          "internalType": "bytes32",
          "name": "sigHash",
          "type": "bytes32"
        }
      ],
      "name": "updateSigNotUsable",
      "outputs": [],
      "stateMutability": "nonpayable",
      "type": "function"
    }
  ],
  "bytecode": "0x6101406040523480156200001257600080fd5b50604051620028173803806200281783398101604081905262000035916200087a565b60405180604001604052806007815260200166536f756c696e6b60c81b815250604051806040016040528060018152602001603160f81b81525060405180604001604052806007815260200166536f756c696e6b60c81b8152506040518060400160405280600281526020016114d360f21b815250620000c4620000be6200032a60201b60201c565b6200032e565b6001620000d28382620009e6565b506002620000e18282620009e6565b5050825160208085019190912083518483012060e08290526101008190524660a0818152604080517f8b73c3c69bb8fe3d512ecc4cf759cc79239f7b179b0ffacaa9a75d522b39400f81880181905281830187905260608201869052608082019490945230818401528151808203909301835260c0019052805194019390932091935091906080523060c05261012052505033600090815260066020908152604091829020805460ff191660011790558151808301909252601e82527f68747470733a2f2f6170692e736f756c2e696e6b2f6d657461646174612f000090820152600a9250620001d3915082620009e6565b5060005b82518110156200024a576000838281518110620001f857620001f862000ab2565b60200260200101519050600062000215826200037e60201b60201c565b90506200022382826200039c565b6200023083600162000ac8565b6000918252600860205260409091205550600101620001d7565b508151600580546001600160801b0319166001600160801b0390921691909117905560005b81518110156200032157600060405180604001604052808484815181106200029b576200029b62000ab2565b6020026020010151600060028110620002b857620002b862000ab2565b60200201518152602001848481518110620002d757620002d762000ab2565b6020026020010151600160028110620002f457620002f462000ab2565b6020020151905290506200031781600060200201518260016020020151620004e8565b506001016200026f565b50505062000aef565b3390565b600080546001600160a01b038381166001600160a01b0319831681178455604051919092169283917f8be0079c531659141344cd1fd0a4f28419497f9722a3daafe3b4186f6b6457e09190a35050565b60006200039682620005ad60201b62000b621760201c565b92915050565b6001600160a01b038216620003f85760405162461bcd60e51b815260206004820152601d60248201527f5342543a206d696e7420746f20746865207a65726f206164647265737300000060448201526064015b60405180910390fd5b6000818152600360205260409020546001600160a01b0316156200045f5760405162461bcd60e51b815260206004820152601960248201527f5342543a20746f6b656e20616c7265616479206d696e746564000000000000006044820152606401620003ef565b6001600160a01b03821660009081526004602052604081208054600192906200048a90849062000ac8565b909155505060008181526003602052604080822080546001600160a01b0319166001600160a01b03861690811790915590518392907fddf252ad1be2c89b69c2b068fc378daa952ba7f163c4a11628f55a4df523b3ef908290a45050565b600080620004f78484620005b5565b6000828152600760209081526040808320848452909152902054919350915060ff1615620005595760405162461bcd60e51b815260206004820152600e60248201526d1053149150511657d3125392d15160921b6044820152606401620003ef565b6000828152600760209081526040808320848452909152808220805460ff1916600117905551849186917ffd5159ca1bc2ff0066345aa67a248b5837ae92cd7b8c16e0034b12a075eb4a0b9190a350505050565b90565b505050565b600080620005c38462000606565b620005ce8362000606565b600084815260086020908152604080832054868452922054620005fb929162000b656200066f821b17901c565b909590945092505050565b6000818152600360205260409020546001600160a01b03166200066c5760405162461bcd60e51b815260206004820152601560248201527f5342543a20696e76616c696420746f6b656e20494400000000000000000000006044820152606401620003ef565b50565b600080828403620006c35760405162461bcd60e51b815260206004820152601360248201527f4944454e544943414c5f414444524553534553000000000000000000000000006044820152606401620003ef565b828410620006d3578284620006d6565b83835b909250905081620007195760405162461bcd60e51b815260206004820152600c60248201526b5a45524f5f4144445245535360a01b6044820152606401620003ef565b9250929050565b634e487b7160e01b600052604160045260246000fd5b604080519081016001600160401b03811182821017156200075b576200075b62000720565b60405290565b604051601f8201601f191681016001600160401b03811182821017156200078c576200078c62000720565b604052919050565b60006001600160401b03821115620007b057620007b062000720565b5060051b60200190565b6000601f8381840112620007cd57600080fd5b82516020620007e6620007e08362000794565b62000761565b82815260069290921b850181019181810190878411156200080657600080fd5b8287015b848110156200086e578886820112620008235760008081fd5b6200082d62000736565b80604083018b811115620008415760008081fd5b835b818110156200085c578051845292870192870162000843565b5050845250918301916040016200080a565b50979650505050505050565b600080604083850312156200088e57600080fd5b82516001600160401b0380821115620008a657600080fd5b818501915085601f830112620008bb57600080fd5b81516020620008ce620007e08362000794565b82815260059290921b84018101918181019089841115620008ee57600080fd5b948201945b83861015620009255785516001600160a01b0381168114620009155760008081fd5b82529482019490820190620008f3565b918801519196509093505050808211156200093f57600080fd5b506200094e85828601620007ba565b9150509250929050565b600181811c908216806200096d57607f821691505b6020821081036200098e57634e487b7160e01b600052602260045260246000fd5b50919050565b601f821115620005b057600081815260208120601f850160051c81016020861015620009bd5750805b601f850160051c820191505b81811015620009de57828155600101620009c9565b505050505050565b81516001600160401b0381111562000a025762000a0262000720565b62000a1a8162000a13845462000958565b8462000994565b602080601f83116001811462000a52576000841562000a395750858301515b600019600386901b1c1916600185901b178555620009de565b600085815260208120601f198616915b8281101562000a835788860151825594840194600190910190840162000a62565b508582101562000aa25787850151600019600388901b60f8161c191681555b5050505050600190811b01905550565b634e487b7160e01b600052603260045260246000fd5b6000821982111562000aea57634e487b7160e01b600052601160045260246000fd5b500190565b60805160a05160c05160e0516101005161012051611cd862000b3f6000396000610c9001526000610cdf01526000610cba01526000610c1301526000610c3d01526000610c670152611cd86000f3fe608060405234801561001057600080fd5b506004361061014d5760003560e01c806370a08231116100c3578063b097b8571161007c578063b097b857146102c7578063c87b56dd146102da578063ca87dbab146102ed578063cf456ae714610300578063f153768614610313578063f2fde38b1461032657600080fd5b806370a082311461025d578063715018a6146102705780638da5cb5b14610278578063907a99241461028957806395d89b411461029c578063aa271e1a146102a457600080fd5b806342966c681161011557806342966c68146101d15780634b17fd74146101e65780634d96928c146101f957806355f804b31461020c5780636352211e1461021f5780636a6278421461024a57600080fd5b806301ffc9a71461015257806306fdde031461017a57806318160ddd1461018f57806326f65c9a146101a55780633644e515146101c9575b600080fd5b6101656101603660046116b1565b610339565b60405190151581526020015b60405180910390f35b610182610370565b6040516101719190611726565b610197610402565b604051908152602001610171565b6101656101b3366004611739565b60009081526009602052604090205460ff161590565b610197610432565b6101e46101df366004611739565b610441565b005b6101e46101f4366004611739565b610513565b6101e4610207366004611794565b610527565b6101e461021a3660046117e7565b610591565b61023261022d366004611739565b6105e4565b6040516001600160a01b039091168152602001610171565b610197610258366004611845565b610641565b61019761026b366004611845565b6106f8565b6101e461077b565b6000546001600160a01b0316610232565b6101e4610297366004611739565b61078f565b610182610855565b6101656102b2366004611845565b60066020526000908152604090205460ff1681565b6101656102d5366004611860565b610864565b6101826102e8366004611739565b6108f2565b6101e46102fb366004611893565b610959565b6101e461030e3660046118eb565b610a2c565b610197610321366004611845565b610ae4565b6101e4610334366004611845565b610aec565b60006001600160e01b03198216635b5e139f60e01b148061036a57506301ffc9a760e01b6001600160e01b03198316145b92915050565b60606001805461037f90611927565b80601f01602080910402602001604051908101604052809291908181526020018280546103ab90611927565b80156103f85780601f106103cd576101008083540402835291602001916103f8565b820191906000526020600020905b8154815290600101906020018083116103db57829003601f168201915b5050505050905090565b600554600090610424906001600160801b03600160801b820481169116611977565b6001600160801b0316905090565b600061043c610c06565b905090565b8061044b33610ae4565b1461048c5760405162461bcd60e51b815260206004820152600c60248201526b15539055551213d49256915160a21b60448201526064015b60405180910390fd5b61049581610d2d565b60058054600160801b90046001600160801b03169060106104b58361199f565b82546001600160801b039182166101009390930a9283029190920219909116179055506000818152600860205260408082208290555182917fbb2f1e8df3cfe65fd278e99556fdd39c96443ba45224ad0f7a91e6c7293cee1491a250565b61051b610dbd565b61052481610e17565b50565b6105343385858585610e82565b61055482826040516105479291906119c5565b6040518091039020610e17565b604051838152849033907f8b7370199fbfd2601a62b6f0a0a38138093b301f0e5aa78d773cd352460b57a89060200160405180910390a350505050565b610599610dbd565b600a6105a6828483611a39565b507f23c8c9488efebfd474e85a7956de6f39b17c7ab88502d42a623db2d8e382bbaa82826040516105d8929190611af9565b60405180910390a15050565b6000818152600360205260408120546001600160a01b03168061036a5760405162461bcd60e51b815260206004820152601560248201527414d0950e881a5b9d985b1a59081d1bdad95b881251605a1b6044820152606401610483565b3360009081526006602052604081205460ff1661068f5760405162461bcd60e51b815260206004820152600c60248201526b15539055551213d49256915160a21b6044820152606401610483565b61069882610ae4565b90506106a48282610f64565b600580546001600160801b03169060006106bd8361199f565b82546101009290920a6001600160801b0381810219909316918316021790915560055460008481526008602052604090209116905550919050565b60006001600160a01b03821661075f5760405162461bcd60e51b815260206004820152602660248201527f5342543a2061646472657373207a65726f206973206e6f7420612076616c69646044820152651037bbb732b960d11b6064820152608401610483565b506001600160a01b031660009081526004602052604090205490565b610783610dbd565b61078d60006110a6565b565b600061079a33610ae4565b90506000806107a983856110f6565b6000828152600760209081526040808320848452909152902054919350915060ff166108045760405162461bcd60e51b815260206004820152600a6024820152691393d517d3125392d15160b21b6044820152606401610483565b6000828152600760209081526040808320848452909152808220805460ff1916905551859185917f390e010097209830b4344cddcbf54990936c4a09a414eb0a540d16dce17a985b9190a350505050565b60606002805461037f90611927565b6000828152600360205260408120546001600160a01b0316158061089d57506000828152600360205260409020546001600160a01b0316155b156108aa5750600061036a565b600083815260086020526040808220548483529082205482916108cc91610b65565b600091825260076020908152604080842092845291905290205460ff1695945050505050565b60606108fd82611136565b6000610907611192565b905060008151116109275760405180602001604052806000815250610952565b80610931846111a1565b604051602001610942929190611b28565b6040516020818303038152906040525b9392505050565b8035421180159061096e575060208101354211155b6109ad5760405162461bcd60e51b815260206004820152601060248201526f455850495245445f444541444c494e4560801b6044820152606401610483565b60006109b833610ae4565b90506109da338584358660005b6020028101906109d59190611b6d565b610e82565b6109ff8360005b6020028101906109f19190611b6d565b6040516105479291906119c5565b610a11848260208501358660016109c5565b610a1c8360016109e1565b610a2681856112aa565b50505050565b610a34610dbd565b6001600160a01b03821660009081526006602052604090205481151560ff909116151503610a905760405162461bcd60e51b8152602060048201526009602482015268155390d2105391d15160ba1b6044820152606401610483565b6001600160a01b038216600081815260066020526040808220805460ff191685151590811790915590519092917f1f96bc657d385fd83da973a43f2ad969e6d96b6779b779571a7306db7ca1cd0091a35050565b60008161036a565b610af4610dbd565b6001600160a01b038116610b595760405162461bcd60e51b815260206004820152602660248201527f4f776e61626c653a206e6577206f776e657220697320746865207a65726f206160448201526564647265737360d01b6064820152608401610483565b610524816110a6565b90565b600080828403610bad5760405162461bcd60e51b81526020600482015260136024820152724944454e544943414c5f41444452455353455360681b6044820152606401610483565b828410610bbb578284610bbe565b83835b909250905081610bff5760405162461bcd60e51b815260206004820152600c60248201526b5a45524f5f4144445245535360a01b6044820152606401610483565b9250929050565b6000306001600160a01b037f000000000000000000000000000000000000000000000000000000000000000016148015610c5f57507f000000000000000000000000000000000000000000000000000000000000000046145b15610c8957507f000000000000000000000000000000000000000000000000000000000000000090565b50604080517f00000000000000000000000000000000000000000000000000000000000000006020808301919091527f0000000000000000000000000000000000000000000000000000000000000000828401527f000000000000000000000000000000000000000000000000000000000000000060608301524660808301523060a0808401919091528351808403909101815260c0909201909252805191012090565b6000610d38826105e4565b90506001600160a01b0381166000908152600460205260408120805460019290610d63908490611bb4565b909155505060008281526003602052604080822080546001600160a01b0319169055518391906001600160a01b038416907fddf252ad1be2c89b69c2b068fc378daa952ba7f163c4a11628f55a4df523b3ef908390a45050565b6000546001600160a01b0316331461078d5760405162461bcd60e51b815260206004820181905260248201527f4f776e61626c653a2063616c6c6572206973206e6f7420746865206f776e65726044820152606401610483565b60008181526009602052604090205460ff1615610e675760405162461bcd60e51b815260206004820152600e60248201526d555345445f5349474e415455524560901b6044820152606401610483565b6000908152600960205260409020805460ff19166001179055565b604080517fa09d82e5227cc630e060d997b23666070a7c20039c7884fd8280a04dcaef5042602082015290810185905260608101849052610f1d908690610ee19060800160405160208183030381529060405280519060200120611370565b84848080601f0160208091040260200160405190810160405280939291908181526020018383808284376000920191909152506113be92505050565b610f5d5760405162461bcd60e51b8152602060048201526011602482015270494e56414c49445f5349474e415455524560781b6044820152606401610483565b5050505050565b6001600160a01b038216610fba5760405162461bcd60e51b815260206004820152601d60248201527f5342543a206d696e7420746f20746865207a65726f20616464726573730000006044820152606401610483565b6000818152600360205260409020546001600160a01b03161561101f5760405162461bcd60e51b815260206004820152601960248201527f5342543a20746f6b656e20616c7265616479206d696e746564000000000000006044820152606401610483565b6001600160a01b0382166000908152600460205260408120805460019290611048908490611bcb565b909155505060008181526003602052604080822080546001600160a01b0319166001600160a01b03861690811790915590518392907fddf252ad1be2c89b69c2b068fc378daa952ba7f163c4a11628f55a4df523b3ef908290a45050565b600080546001600160a01b038381166001600160a01b0319831681178455604051919092169283917f8be0079c531659141344cd1fd0a4f28419497f9722a3daafe3b4186f6b6457e09190a35050565b60008061110284611136565b61110b83611136565b6000848152600860205260408082205485835291205461112b9190610b65565b909590945092505050565b6000818152600360205260409020546001600160a01b03166105245760405162461bcd60e51b815260206004820152601560248201527414d0950e881a5b9d985b1a59081d1bdad95b881251605a1b6044820152606401610483565b6060600a805461037f90611927565b6060816000036111c85750506040805180820190915260018152600360fc1b602082015290565b8160005b81156111f257806111dc81611be3565b91506111eb9050600a83611c12565b91506111cc565b60008167ffffffffffffffff81111561120d5761120d6119d5565b6040519080825280601f01601f191660200182016040528015611237576020820181803683370190505b5090505b84156112a25761124c600183611bb4565b9150611259600a86611c26565b611264906030611bcb565b60f81b81838151811061127957611279611b57565b60200101906001600160f81b031916908160001a90535061129b600a86611c12565b945061123b565b949350505050565b6000806112b784846110f6565b6000828152600760209081526040808320848452909152902054919350915060ff16156113175760405162461bcd60e51b815260206004820152600e60248201526d1053149150511657d3125392d15160921b6044820152606401610483565b6000828152600760209081526040808320848452909152808220805460ff1916600117905551849186917ffd5159ca1bc2ff0066345aa67a248b5837ae92cd7b8c16e0034b12a075eb4a0b9190a350505050565b505050565b600061036a61137d610c06565b8360405161190160f01b6020820152602281018390526042810182905260009060620160405160208183030381529060405280519060200120905092915050565b60008060006113cd858561150a565b909250905060008160048111156113e6576113e6611c3a565b1480156114045750856001600160a01b0316826001600160a01b0316145b1561141457600192505050610952565b600080876001600160a01b0316631626ba7e60e01b888860405160240161143c929190611c50565b60408051601f198184030181529181526020820180516001600160e01b03166001600160e01b031990941693909317909252905161147a9190611c69565b600060405180830381855afa9150503d80600081146114b5576040519150601f19603f3d011682016040523d82523d6000602084013e6114ba565b606091505b50915091508180156114cd575080516020145b80156114fe57508051630b135d3f60e11b906114f29083016020908101908401611c85565b6001600160e01b031916145b98975050505050505050565b60008082516041036115405760208301516040840151606085015160001a61153487828585611575565b94509450505050610bff565b8251604003611569576020830151604084015161155e868383611662565b935093505050610bff565b50600090506002610bff565b6000807f7fffffffffffffffffffffffffffffff5d576e7357a4501ddfe92f46681b20a08311156115ac5750600090506003611659565b8460ff16601b141580156115c457508460ff16601c14155b156115d55750600090506004611659565b6040805160008082526020820180845289905260ff881692820192909252606081018690526080810185905260019060a0016020604051602081039080840390855afa158015611629573d6000803e3d6000fd5b5050604051601f1901519150506001600160a01b03811661165257600060019250925050611659565b9150600090505b94509492505050565b6000806001600160ff1b0383168161167f60ff86901c601b611bcb565b905061168d87828885611575565b935093505050935093915050565b6001600160e01b03198116811461052457600080fd5b6000602082840312156116c357600080fd5b81356109528161169b565b60005b838110156116e95781810151838201526020016116d1565b83811115610a265750506000910152565b600081518084526117128160208601602086016116ce565b601f01601f19169290920160200192915050565b60208152600061095260208301846116fa565b60006020828403121561174b57600080fd5b5035919050565b60008083601f84011261176457600080fd5b50813567ffffffffffffffff81111561177c57600080fd5b602083019150836020828501011115610bff57600080fd5b600080600080606085870312156117aa57600080fd5b8435935060208501359250604085013567ffffffffffffffff8111156117cf57600080fd5b6117db87828801611752565b95989497509550505050565b600080602083850312156117fa57600080fd5b823567ffffffffffffffff81111561181157600080fd5b61181d85828601611752565b90969095509350505050565b80356001600160a01b038116811461184057600080fd5b919050565b60006020828403121561185757600080fd5b61095282611829565b6000806040838503121561187357600080fd5b50508035926020909101359150565b806040810183101561036a57600080fd5b6000806000608084860312156118a857600080fd5b83359250602084013567ffffffffffffffff8111156118c657600080fd5b6118d286828701611882565b9250506118e28560408601611882565b90509250925092565b600080604083850312156118fe57600080fd5b61190783611829565b91506020830135801515811461191c57600080fd5b809150509250929050565b600181811c9082168061193b57607f821691505b60208210810361195b57634e487b7160e01b600052602260045260246000fd5b50919050565b634e487b7160e01b600052601160045260246000fd5b60006001600160801b038381169083168181101561199757611997611961565b039392505050565b60006001600160801b038083168181036119bb576119bb611961565b6001019392505050565b8183823760009101908152919050565b634e487b7160e01b600052604160045260246000fd5b601f82111561136b57600081815260208120601f850160051c81016020861015611a125750805b601f850160051c820191505b81811015611a3157828155600101611a1e565b505050505050565b67ffffffffffffffff831115611a5157611a516119d5565b611a6583611a5f8354611927565b836119eb565b6000601f841160018114611a995760008515611a815750838201355b600019600387901b1c1916600186901b178355610f5d565b600083815260209020601f19861690835b82811015611aca5786850135825560209485019460019092019101611aaa565b5086821015611ae75760001960f88860031b161c19848701351681555b505060018560011b0183555050505050565b60208152816020820152818360408301376000818301604090810191909152601f909201601f19160101919050565b60008351611b3a8184602088016116ce565b835190830190611b4e8183602088016116ce565b01949350505050565b634e487b7160e01b600052603260045260246000fd5b6000808335601e19843603018112611b8457600080fd5b83018035915067ffffffffffffffff821115611b9f57600080fd5b602001915036819003821315610bff57600080fd5b600082821015611bc657611bc6611961565b500390565b60008219821115611bde57611bde611961565b500190565b600060018201611bf557611bf5611961565b5060010190565b634e487b7160e01b600052601260045260246000fd5b600082611c2157611c21611bfc565b500490565b600082611c3557611c35611bfc565b500690565b634e487b7160e01b600052602160045260246000fd5b8281526040602082015260006112a260408301846116fa565b60008251611c7b8184602087016116ce565b9190910192915050565b600060208284031215611c9757600080fd5b81516109528161169b56fea2646970667358221220a74f440dc9f0adc249e3f39482b0834f37b8eeb656060506d5373623d195abf064736f6c634300080f0033",
  "linkReferences": {},
  "deployedLinkReferences": {}
}